:020000040800F2
:1000000000200010E510030801FA02082DC50108C0
:10001000FFF90208FDF90208FBF9020800000000E0
:10002000000000000000000000000000F9F90208D4
:10003000F7F9020800000000F5F9020861BA0108AA
:100040004D1103084D1103084D1103084D1103080C
:100050004D1103084D11030801C601082DC7010801
:10006000F1C60108B5C6010879C60108E1EF01082B
:10007000D1EF0108C1EF0108B1EF0108A1EF0108BC
:100080008DEF010879EF01084D1103084D110308A8
:1000900061FA02084D1103084D1103083DC601081D
:1000A0004D11030889B0010845AE010801B20108ED
:1000B000CDAF010811AF01084D1103084D11030820
:1000C0004D1103084D1103084D1103084D1103088C
:1000D0004D1103088DBB010811BB010895BA010839
:1000E000C5C501084D110308E5F902084D110308C3
:1000F0004D1103084D1103084D1103084D1103085C
:100100000000000000000000000000004D11030886
:100110004D1103084D110308AD1401089114010895
:1001200065EF010851EF01083DEF010829EF0108D3
:1001300015EF01084D110308000000000000000049
:100140004D1103084D1103084D1103080000000074
:10015000000000000000000000000000000000009F
:1001600000000000000000004D1103084D110308BD
:100170004D11030800000000000000000000000016
:08018000000000004D1103080E
:100188000C4B1B78DB0700D570470B4A1368002B14
:10019800FAD04FF47A7101FB03F39842F4D3074B7A
:1001A8001B781BB9064B99681B690B600023136009
:1001B800704700BF3C4900209C3600209036002044
:1001C8007C36002010B5094C238823EA00009842A9
:1001D800208009D0064B41F20241FF2219809A7013
:1001E8000E2012F0FBF92388184610BDC84A0020DB
:1001F800585D0020024B1A7859780BF04DBB00BFB0
:1002080090230020442800F04C822DE9F0410C4650
:100218002AD9812800F0FA8175D8542800F0A880DE
:1002280040F262816E2800F04282802840F0EC8122
:10023800BC4B18780B3810F0FF0012D0BA4F0022D0
:100248000A2621683B884D1C25600E702168FF2B0B
:1002580002F10102A8BFFF234D1C824225600B70EA
:10026800EFD10120BDE8F081052800F009821AD8F5
:10027800022876D040F20381032800F0BC810428CC
:1002880040F0C2810246A94920461DF0A3FF002183
:1002980020461DF0CFFF23680022591C21601A70E8
:1002A8000120BDE8F081242854D040F2FA802828A3
:1002B80000F05C81382840F0A7810A689C4B012037
:1002C800511C2160107022680521151825601170D5
:1002D80022680A2115182560117022680021151856
:1002E8002560117022681978151825601170226828
:1002F800597815182560117022689B7811182160AB
:100308001370BDE8F081A02813D040F28980B82886
:1003180000F06581FE2840F07781864D05F10806DA
:1003280035F9021B204689B21DF084FFAE42F7D191
:1003380097E7814B084619681DF064FF7F4B2046FC
:1003480019681DF05FFF7E4B204619681DF05AFFA3
:100358000120D6E77B4B084619681DF053FF0120A2
:10036800CFE70846042278491DF034FF0120C8E78A
:100378000B68764F591C012221601A7023680025EA
:100388009A1822601D70236897F85720591C21601D
:100398001A70236897F85620591C21601A70B7F80C
:1003A800521020461DF046FF23685A1C22601D701B
:1003B80023682922591C21601A70B7F85410204666
:1003C8001DF038FFBD1E07F1500635F8021F204604
:1003D8001DF030FFAE42F8D122685D4B0D21501C54
:1003E80020605D181170226813F8011F501CAB4281
:1003F80020601170F7D123680222591C21601A70FD
:10040800B7F8581020461DF015FFB7F85A102046C7
:100418001DF010FFB7F85C1020461DF00BFF20E719
:10042800822840F0F1800B684A4A4B4D11784B4ABC
:10043800581C20601970118920461DF0FBFE484B9E
:1004480022681B88FF2B02F10101A8BFFF2321604E
:100458001370A96881F3100189B220461DF0EAFEE5
:10046800296801F30F0189B220461DF0E3FE2368D5
:100478003C4A591C1278216001201A7041E7012872
:1004880040F0C2800B680022591C21601A70236852
:100498005A1C2260187023682522591C21601A7082
:1004A8002FE7202840F0B0800B682C4D591C6A7843
:1004B80021601A7023682A78591C21601A702368F1
:1004C800AA78591C21601A70298920461DF0B2FEAD
:1004D80023686A79591C21601A702368AA79591C03
:1004E800216001201A700CE7522840F08D800A68BC
:1004F8001D4E531C03212360062500231170012083
:100508002268511C2160107022680633511C122B7E
:10051800216003EB0600157000F0E8804578985DCF
:10052800EEE700BF564B0020DC350020C852002003
:100538003F250020D0520020ACF7FF1FB0F7FF1F67
:10054800B4F7FF1F402B0020E0470308384700207E
:1005580097470020704D0020404A0020A8470020FF
:10056800544A0020A6470020542403080B68DFF8EB
:10057800FC81704E591C022221601A7023680627DC
:100588005A1C22601F7023680A22591C21601A70A5
:10059800236801255A1922601D70B8F800102046FA
:1005A8001DF048FEB8F8021020461DF043FE2368EF
:1005B8005A1922601F7023685022591921601A7035
:1005C80023680022591921601A70318820461DF0CD
:1005D80031FE204671881DF02DFE284691E6564DC5
:1005E800084629681DF00EFE23682A7A591C2160E6
:1005F80001201A7085E60B685A1C0A6018700B688F
:100608005A1C0A60187046E600207AE64B4B1E78A2
:100618000A3E16F0FF063FF424AEDFF85481484F37
:1006280008F1FF331E440A2313E0502B7FD0002526
:1006380029462268501C2060204613701DF0FAFDE0
:10064800294620461DF0F6FDB0453FF40AAE18F8DD
:10065800013F0A2BE9D13B4A9568116805EB8505EE
:100668004FF6FF726D009542A8BF15469142A8BF8C
:10067800114625EAE57521EAE171ADB289B2D8E7FC
:100688000B22314920461DF0A5FD08222F4920469E
:100698001DF0A0FD204607222D491DF09BFD0120DD
:1006A8002FE6002A41D02B4B1360012070472A4BBC
:1006B8000A681B88294DFF2BA8BFFF23511C216006
:1006C8001370A96881F3100189B220461DF0B2FDAC
:1006D800234B204619881DF0ADFD296801F30F0151
:1006E800204689B21DF0A6FD01200AE61D4B2168AF
:1006F8001A78481C20600A70002A3FF4B2AD013A0B
:10070800D2B2194902EB420201EB42025578002DA0
:100718003FF4A7AD01331D44226813F8011F501C94
:100728009D4220601170F7D19BE501207047BD689C
:10073800396893E74C250020CC5B0020564B0020FD
:100748004436002010360020E8470308F447030821
:10075800004803087D070008544A0020404A00204A
:1007680056490020A85F002054240308442500208F
:10077800841E030808B528F023F8024B024ADA6001
:10078800FEE700BF00ED00E00400FA052DE9F047A0
:100798008C4A8D4B12781C78D207064648D58B4D6B
:1007A800012C00F091801ED3022C40F09B808849D8
:1007B800884A09881288884F914201D901241C70FF
:1007C800EB7AFBB12B89EBB1844B1B78D3B110F0DA
:1007D800A3FE002800F0E2802B7B83422CBF01237C
:1007E80000233B700FE0DFF8E8C17B4F7C4CBCF87E
:1007F80000002288697B521A8242DFDAEB7A0024F1
:10080800002BDFD13B782A79632A07D87549022C57
:10081800087800F0B880002840F0A0807249AA7AD1
:100828009C4238BF1C460C70002A44D1BDE8F087B2
:10083800DFF89CC1654DBCF80000BCF8021095F8C3
:1008480003E06A4F411A0029A4F10302B8BF4942E4
:10085800704597F80080D2B211D32F7887420ED313
:10086800012A45D9B8F1020F9AD15C48604A00784C
:1008780090800229CCBF00210121D18090E7B0EB04
:100888004E0FEDDC012A40F28C800229EADC0324B9
:10089800514F524852494F4A1C70B8F1020F4FF05D
:1008A80000033C7003700B80138089D1504A0121EA
:1008B8009380D18084E7012C6BD0022CB6D107201D
:1008C800BDE8F04711F08ABE424A41491288687B68
:1008D8000988121A914207DD414A12888A423CBFB0
:1008E80000241C703C4F6BE702241C703A4F67E7EA
:1008F8000229B7DC95F800E090FBFEFE0EF1010E30
:10090800BEF1080FDFF8D4A0AA786978DFF8C490A0
:10091800334C314FA8BF4FF0080E8AF800E01FFA99
:100928008EFA11FB0AF112FB0AF2DFF8B8A0A9F857
:10093800001092B200214FF06409B8F1020F228032
:1009480039701970CAF804108AF801907FF452AF10
:10095800274A0121A2F804E0D18048E74868301A04
:10096800244EB042C8BF4A703FF758AFC2F1640284
:10097800214E00FB02F086FB0062C017A0EBA250DC
:10098800643048704AE70028E8D101274E600F70AC
:10099800ECE70820BDE8F04711F020BE02233B70C9
:1009A80031E7032C7FF471AFB8F1020F9AD10B4AEB
:1009B8000F4B12789A800229CCBF00210121D980DF
:1009C800054FFDE63C49002058360020A847002086
:1009D800544A00205C36002068360020704D002004
:1009E8005A36002060360020A6470020DE5400203A
:1009F800D05200207F9698006BCA5F6B2DE9F04FAC
:100A08002DED028BDFF8748398F80030012B8FB03E
:100A1800064600F0C181BF4BBF4F187821F0E4FFB4
:100A28003B788342044608D0002840F03881BB4D0B
:100A3800286811F0D5F82C603C70DFF8449399F8D9
:100A48000030012B00F05581B54BB64C1D6894F869
:100A580000B0ADB1284621F0BDFF88B1BBF1000F51
:100A680006D1B14B1B681BB1B04901220B60227043
:100A7800AF4B1B78D3B10FB0BDEC028BBDE8F08F44
:100A8800AC4B187821F0B0FF58458246F0D00028CA
:100A980040F09581A54D286811F0A2F8A44BC5F83F
:100AA80000A01B7884F800A0002BE4D1A24D2B688D
:100AB8005B05E0D598F80030012B00F03182DFF8B3
:100AC800C4823B78002B3CD0DFF8BCB29B49DBF8F2
:100AD8000C20B21A8A4200F25482994D95F800A06F
:100AE800BAF1000F00F09082DFF8A0C2DCF8002015
:100AF8003AB3DBF81C1040F6B730711A814220D99E
:100B08009BF81850002D00F052849BF821708349FF
:100B18009BF820E00868013DEDB201378BF81850CA
:100B2800FFB2002D00F0388412F8011B8BF82170F9
:100B38008E44CCF800208BF820E01BF0B3F8CBF8FB
:100B48001C60D8F8003099F800200133012A069378
:100B580000F09C812378002B4AD0744C2368002B2A
:100B680046D0DFF824B2D8F80050DBF83C20AA1AA7
:100B7800632A3DD9DFF81892DFF81882714F4120B7
:100B880021F0C2FBB9F9022088FB0230D217C2EB70
:100B9800A00080B221F09EFBB9F9002088FB02304A
:100BA800D217C2EBA00080B221F094FBB9F904205F
:100BB80088FB0230D217C2EBA00080B221F08AFB7A
:100BC800397820681BF06EF89BF8402012F0010A73
:100BD80000F0F2845C49CBF83C500132D2B2A1FB60
:100BE8000231C90801EB8101A2EB41028BF84020D8
:100BF800564B1B78002B40F0A282554B1B78002BDC
:100C08003FF439AFDFF880B1DBF84C2002F5004241
:100C1800E8329642FFF42FAF9BF85020CBF84C6097
:100C2800012A40F276839BF851004A4D4A494B4FBE
:100C3800441C104405EB8000A1FB043149084568B9
:100C4800387801EB4101611A8BF8511028B14448FA
:100C580044490068884200F00A82ADB1424F0797C4
:100C68000EACA7F1120844F8208D48F2A50C152205
:100C780031462046ABF854C08BF85620A8470028C8
:100C880040F044849BF8502033490132A1FB0231E3
:100C9800490801EB4101521A8BF85020EBE6334B1F
:100CA8001B68002B3FF4C9AE314A93F902009379CF
:100CB800002B18BF08244FF0000308BF00240321AD
:100CC8004FF49642CDE90114009208211A4610F01B
:100CD800CBFF124B186000283FF4AFAEDFF8A090AE
:100CE80021F0E8FD01233B7099F80030012B7FF4D7
:100CF800ABAE204B204D187821F076FE2B680446C9
:100D080000287DD1002B3FF49FAE184610F068FFF5
:100D18002C6099E6654E0020664E0020C84D0020E4
:100D2800704E0020744E0020604E00202477002072
:100D3800544B0020754E0020EC6700203F0D030047
:100D4800D44D002069840020CDCCCCCCA44E00200A
:100D5800B54E0020841E0308ABAAAAAAA4520020FC
:100D6800A42B0020A4450020F9230020CC4D00200E
:100D7800544D0020684E0020C44D0020594E0020DC
:100D8800674E0020145E002090230020D04D0020E4
:100D9800784D002067666666B64BB74C1F683846C4
:100DA80021F018FE256800284BD0002D7FF433AEC3
:100DB800B24B1B68002B3FF42EAE23602BE6002DB0
:100DC8003FF456AEAB79002B5DD0AD4A52F82330D4
:100DD800AC4A95F9020052790093003218BF0122FB
:100DE80000230221CDE901121A46102110F03CFF20
:100DF800A54B186000283FF43BAE0123237037E66B
:100E0800002B7FF421AEA14A1268002A3FF41CAEE1
:100E18009C4992F902008A794979002A0CBF00227C
:100E28000822002908BF42F0010203244FF461415F
:100E3800CDE9014200911A46202110F015FF2860E3
:100E480002E6934B187821F0CFFD8146002800F088
:100E58008F80002D7FF4DFAD002F3FF4DCAD894B90
:100E680097F902005B79B3FA83F35B0902214FF427
:100E78001652CDE9011300922B462A46042110F0A0
:100E8800F3FE2060C7E54FF49643A1E7814D28683B
:100E980000283FF45FAEDFF830B27F4F4FF0010912
:100EA8001AF0FCFE48B3DBF828A0BAF1000F24D1F1
:100EB80028681AF0EBFE82B27E2A00F011827B7855
:100EC800002B40F05C819BF82410002900F002817F
:100ED8001B2A8BF82430286840F049811AF0DEFE7E
:100EE800002800F00E820023286887F80190CBF8CC
:100EF80028301AF0D3FE0028D5D11AF0A5FCDBF86B
:100F08003820801AB0F5FA7FFFF624AE06AA6349A6
:100F1800DBF8280021F010FA0022CBF8282019E687
:100F2800554B1B68002B3FF4CAADDFF89CB15C49F8
:100F3800DBF80420B21A8A427FF7C1AD59499BF801
:100F480008200968CBF804600132D2B288078BF810
:100F5800082000F10184510700F0DC83282ADFF81B
:100F68006C8100F02784504B5E201B689847A8E5E9
:100F7800002D3FF450AD284610F032FEC4F8009022
:100F880049E5404A494992F80AE0D8F80070DBF888
:100F980010500988464A4FF47A707D1B00FB0EF00A
:100FA8005FFA81FC0027090A854282F81EC0D177C2
:100FB80082F814C051759770177180F0DE813D4832
:100FC8003D4F05688068CBF80C6087FB053CC1176E
:100FD80087FB0037ED17C5EBAC00C1EBA7014FEA63
:100FE800202E4FEA212C4FF4FA77107747F230552C
:100FF800782082F81DE082F8201082F821C05783FB
:10100800558482F8240068E52C4F38681AF046FEAB
:10101800C0B201280ED9022840F0CD811E4A1178AD
:10102800002940F0C283DBF81410711AB1F57A6F09
:1010380080F02084DFF898C0DCF80020002A3FF414
:1010480080AD297800297FF454AD1D4A38681268AC
:1010580092781E3A012A40F2A4830430022121F03A
:10106800F3FB0121002229708BF8202067E5154D3C
:10107800F4E500BF5C4E00202C4A0020604E0020A2
:10108800702B0308544D0020247700206C4E00205C
:10109800644E0020C44D002000000020B223002030
:1010A80047E80100744D002034470020544A0020CE
:1010B800784E0020404A002067666666C84D0020CA
:1010C800CC4D002065FE010890230020145E00200E
:1010D800D04D00207D2A00F013829BF82E3023B1DA
:1010E80080F02002D2B28BF82E10BBF82C109BF89F
:1010F80023001144062889B20DD80BEB000C0023FD
:1011080001308BF82300ABF82C10CBF828308CF882
:1011180030202868C4E60A0A52FA81F1FF2987F8C4
:101128000190ABF82C1040F0E780A64BCBF82830A4
:101138001AF08AFB0246CBF838202868AEE6A24CA3
:10114800227832B1A14BA24918681AF07BFD00231E
:101158002370A04F3C78B4B1DFF8ACA2DAF8605045
:10116800002D40F0DB809C4B3D705E6445E50D2A08
:101178007FF4B9AEABF82C30CBF8283090E6CBF83A
:1011880028A028688CE6954D2B78002B40F04481E8
:10119800DFF844B2924CDBF844102078914A92FB75
:1011A800F0F20A449642FFF428AD8F499BF8482094
:1011B800CBF844608D5CE80744D5DFF850829FED9A
:1011C8008B8AB8F902308A4A079207EE903AF8EE0D
:1011D800E77A0EAF67EE887AA2F13D01FDEEE77A75
:1011E80047F8201D17EE903A4FF4006022F8400CA3
:1011F8001E2002F83E0C99B238461CF0F5FFB8F9EB
:10120800003007EE903AF8EEE77A384667EE887ACB
:10121800FDEEE77A17EE903A99B21CF0E5FFB8F9BF
:10122800043007EE903AF8EEE77A384667EE887AA7
:10123800FDEEE77A17EE903A99B21CF0D5FF3846E2
:1012480021F084FBA9073DD5694A6A49DFF8C081C6
:10125800098807920EAFA2F13D0047F8200D4FF420
:10126800206E4FF0080C22F840EC02F83ECC3846CD
:101278001CF0BAFFD8F800205F48D11780FB023273
:10128800C1EBA20189B238461CF0AEFF10F044F958
:10129800D8F80880069A4FEA1841531C0693117033
:1012A800069A4FEA1821531C06931170069A511C8E
:1012B800069182F80080069A511C069110703846F3
:1012C80021F044FB6A0700F19D829BF848202078B2
:1012D800013292FBF0F100FB11228BF848208CE4DC
:1012E8008BF822A08BF823A08BF8249087F801A014
:1012F800CBF828A02868D3E50023CBF82830286845
:10130800CEE5CBF828008BF8229087F80190286862
:10131800C6E53A4901EB82014D689EE40024DFF8F6
:10132800F49025464FF050080BE01C44EFF311836E
:1013380088F31288DAF86020944217DADBB283F374
:1013480011881AF804B0601C5946504420F0D8FEA1
:101358000BF101030028E8D049463A2020F032FE7C
:101368000BF1010B0543EDB25C44DFE70022DBB271
:10137800CAF8602083F31188F5E62149D8F80000FF
:101388000978CBF81000013901293FF618AE102072
:1013980002219070117112E60EF1010271468BF86C
:1013A80021708BF820201AF07DFCFFF7C8BB21F0D4
:1013B80081FAFFF7C4BB21F06DFA124A01211170BE
:1013C80038E600BFC0230020584E0020A84E002059
:1013D800184E0020AD4E002090230020AC4E002077
:1013E800B44E0020A0860100B04E002058A08B41CA
:1013F800184E0020544A002067666666841E03085B
:10140800A647002000000020BC4E0020784D002098
:10141800404A002089290208AE49AF4B0093A1F148
:101428003F07AE4BAE4A059101F8404C06A8AD49BE
:1014380004971CF0D1FF049F7B1C04933C70049B11
:101448002922591C04911A70049BEA22591C049100
:101458001A70049BC822591C049106A81A702EF011
:10146800A3FF00F1010806A9424604982FF09EFF49
:10147800049A02EB08030133049302F80840049B22
:101488005A1C04921C70049B5A1C04921C70049BE6
:101498005A1C04921C70049B5A1C04921C70049BD6
:1014A8005A1C04921C70049B5A1C04921C70049BC6
:1014B8005A1C04921C70049B5A1C04921C70049BB6
:1014C8005A1C04921C70049B5A1C04921C70049BA6
:1014D8005A1C04921C70049B5A1C04921C70049B96
:1014E800012299180EA804911A7050F8283DDB1BA8
:1014F8003B7021F02BFA7C4B2C705E64FFF77DBBB0
:101508008BF82E90CBF828102868C9E4069E46452B
:1015180040F24282A7F11300013E002141F2210569
:1015280010F8012F81EA022109B28AB20029ACBF62
:10153800520085EA420292B2130454BF520085EA6F
:10154800420292B2170454BF520085EA420292B294
:10155800110454BF520085EA420292B2130454BFE8
:10156800520085EA420292B2170454BF520085EA3B
:10157800420292B2110454BF520085EA420292B26A
:10158800130455BF510085EA420289B291B28642DE
:10159800C6D120461CF04EFE5449069C5448641A95
:1015A800152CA8BF152422462FF000FF51499BF89F
:1015B80050200C70FFF768BB4F4A1288D00515D42D
:1015C800D10600F1E381930600F1E881500600F1AD
:1015D8000682110700F10F82D30700F10F8212F083
:1015E800020F0CBF4FF0040A4FF00C0A4349444A5B
:1015F80091F80090D27809F001090AB149F002097E
:10160800532020F081FE3F4A128802EB820202EB4F
:101618008202900080B220F05DFE002020F05AFE89
:10162800394A3A4912882068C2EBC212520081FB3B
:10163800023111444FEAE278C8EB61285FFA88F872
:1016480041461AF02FFB3A78206888EA02084AEAED
:101658000909002187F800801AF024FB4946206810
:101668001AF020FB3A78206889EA02095FFA89F9BA
:10167800494687F800901AF015FB9BF84020002A8D
:101688007FF4A8AA4F2020F03FFE2DF0FFFE2DF09A
:10169800FDFE2DF0FBFE012120681AF003FB1C491A
:1016A8003A7891F80080206808F00108414682F0F5
:1016B80001023A701AF0F6FA3A78206888EA0208C5
:1016C800414687F800801AF0EDFA9BF84020FFF7B2
:1016D80081BA00BF184E0020C852002028480308CD
:1016E800304803083C48030890230020E4230020E6
:1016F800282900203D290020C84A00203C49002014
:101708005C490020544A00205649002003082080E4
:10171800E4520020BB4ABC49B2F94A2081FB02319D
:10172800D217C2EBA10109B2022021F0DFF8B74AB3
:101738001278D30700F11381B54DB64A2989A2FB67
:1017480001318908032021F0D1F86A79002A40F094
:10175800AD809BF8082001E4DFF804A39FEDAE8A72
:101768004FF02408AD4BFAEC016A9B8A07EE103A59
:10177800B8EEC77A4046C6EE877A08F101085FFAE4
:1017880088F867EE887AFDEEE77A17EE903A19B294
:1017980021F0ACF8B8F1270FE4D19BF80820FFF747
:1017A800DABB02211AF06EFA5BE4CBF8146082F817
:1017B80000A03FE4D8F80050994ADFF8A8A2A2FB9D
:1017C8000532920BAAFB02314909C1EB0111A2EBC8
:1017D8008102110209B2002217208BF8082021F09B
:1017E80085F8904BA3FB05239B09AAFB031252091A
:1017F800C2EB0212A3EB820319B2182021F076F88B
:10180800FFF7B1BB884A0792A2F1400721210020C7
:10181800A2F13D0822F8400CB970CDF8188027F0E5
:101828003BFD824A824D1288824900280ABF294618
:1018380003250425530500F1AC80D00700F1B180E1
:1018480002F002027C48002A1CBF032501462A46F2
:101858007A482FF0ABFD08EB05020EA87849013253
:1018680040F8202D521A002108F805107A7021F04E
:101878006DF82AE50121386811701AF007FA8246D6
:1018880038681AF003FA1AF07F0F7FF4D3AB8E286A
:101898007FF4D0AB2A78002A7FF426A9694A6A49DE
:1018A80011602D228BF81820FFF7CFBBDFF8B8A105
:1018B8009AF80020002A77D1DFF8B08111469446C3
:1018C8000620ABF80AC021F011F86048BBF80A20DE
:1018D80090F809C0B8F800100132BCF1010FABF85C
:1018E8000A207FD0007B9AF8002001EB81011FFAC3
:1018F80081FA10B10AB19AFBF2FADFF87481A8FBF9
:101908000A384FEA58180FFA88F13A2020F0EEFF0B
:10191800642101FB18A189B23E4A0531A2FB0131BD
:10192800C9083B2020F0E2FFAA79002A3FF411AF52
:10193800DFF840810A21D8F8002092FBF1F1282035
:1019480009B220F0D3FF2A89002A50D1D8F808100C
:1019580081F3100109B2042020F0C8FFF9E627F04E
:1019680053FE3B4A9FED3B7AD2ED037A67EE877AC6
:10197800FCEEE77A17EE903A99B220B92A6812F08D
:10198800100F18BF002109B2214DDBE64FF0340AD1
:101998002CE6032530495AE70021FAE54FF0240ADE
:1019A80024E62E49042552E7DFF8C080BBF80A0078
:1019B800B8F8001090FBF2FC4FF0640E02FB1C0C10
:1019C8000EFB01211FFA8CFC5200B1FBF2F10A0256
:1019D80042EA0C12C1F303210A4311B270E74FF037
:1019E800100A03E609B2392020F080FF9CE70FF0C7
:1019F80093FD01B2AFE74FF0200AF7E54FF0080A70
:101A0800F4E500BFF0640020676666663C49002084
:101A1800A8470020CDCCCCCC00007A44804D0020D3
:101A280073B2E745D34D6210184E0020C84A002013
:101A38000C4803081448030824480308DB4D002019
:101A4800D94D0020D04D0020784E0020544D002064
:101A580040490020CDCC4C3E184803081C480308D8
:101A6800A84D002089888888704D0020544A00209D
:101A78001F85EB51404A00202DE9F047DD4C636893
:101A880020469847002800F0E180DB4B1B780122B4
:101A9800042B84F8342000F0DB80B4F9163006EE0D
:101AA800903AB4F9183007EE103AB4F91A3007EE44
:101AB800903AF8EEE66AB8EEC77AF8EEE77AC4ED3F
:101AC8000A6A84ED0B7AC4ED0C7ACC4B1B88002B88
:101AD80072D0CB4DD4ED0A6AD5ED004A95ED050AD2
:101AE80095ED015A95ED067AD5ED047AD5ED035AB0
:101AF80095ED026AA4EEA60AA5EE267A67EEC07AEC
:101B0800A5EEC07AE6EE267A85ED057AC5ED067A69
:101B18002FF042FFD4ED0B6AD5ED094A95ED0E0A78
:101B280095ED0A5A95ED0F7AD5ED0D7AD5ED0C5A4B
:101B380095ED0B6AA4EEA60AA5EE267A67EEC07AA2
:101B4800A5EEC07AE6EE267A06EE900AF8EEE66A88
:101B580085ED0E7AC5ED0F7AC4ED0A6A2FF01CFFE9
:101B6800D4ED0C6AD5ED124A95ED170A95ED135A86
:101B780095ED187AD5ED167AD5ED155A95ED146AC6
:101B8800A6EEA40AA6EE857A67EEC07AA0EE657A7C
:101B9800E6EE867A06EE900AF8EEE66AC5ED187A61
:101BA80085ED177AC4ED0B6A2FF0F6FE07EE900A62
:101BB800F8EEE77AC4ED0C7A924EA17F9248934DE5
:101BC8000CF0EEFA3288EB6E002A40F09580904ACD
:101BD8001268500759D4B3F9002094ED0B6A94EDBC
:101BE8000C7A94ED0A5A8B4905EE902AB3F9022033
:101BF800B3F9043006EE902A07EE903AF8EEE55A6B
:101C0800854B0A68D3ED003A93ED014AD3ED024AB9
:101C1800F8EEE66AF8EEE77A75EE655A76EE666AE9
:101C280077EE677AC4ED0A5A34EE266A73EEA55A3F
:101C380034EEA77A0132C3ED005AC4ED0B6A83ED86
:101C4800016AC4ED0C7A83ED027A0A60BDE8F08778
:101C5800B4F91600B4F91810B4F91A206F4B07EE4E
:101C6800900AF8EEE76A07EE901AB8EEE77A07EE00
:101C7800902AF8EEE77AC4ED0A6A188059809A80AB
:101C880084ED0B7AC4ED0C7A1FE7B5F87C20322A74
:101C980000F0CC80002A40F0FA8095F89A20002ABB
:101CA80099D005F18C0007C85D4EA78A86FB02EC27
:101CB800D217C2EB2C12D21B86FB00C786FB01C6CB
:101CC800C017C917C1EB2611C0EB2710554E9A80D3
:101CD800188059800023B381F38185F89A300CF07D
:101CE80013FD1BF029FC0CF0B5FC1BF045FA012094
:101CF80010F0B2FCEB6E6EE7B2F5C87F18BFD5EDF9
:101D08001C7AD4ED0A6A0CBF9FED477AB8EEE77AE1
:101D1800DFED457A0022C4ED0A7A1A803288B6F8D7
:101D2800008037EE267AB2F5C87F18BFD5ED1D7A48
:101D3800BDEEC77A18BFF8EEE77A17EE101A85EDF0
:101D48001C7A94ED0B7A77EE877A0027FDEEE77A16
:101D58000020B8F5C87FE76217EE902A5880C5EDD5
:101D68001D7A00F08B80D5ED1E7A94ED0C7A2763EE
:101D7800F8EEE77AB8F1010F77EE877A9880FDEEF2
:101D8800E77A17EE907AC5ED1E7A2ED1DFF890C06B
:101D9800B4F814E0C8378CFB07A9C831C832FF175C
:101DA800C7EBE9178CFB01A98CFB02ACD217C2EB7D
:101DB800EC12C917DFF86CC05A80A7EB0E07C1EB0D
:101DC800E9119F801980ACF80C00ACF80E000CF0FB
:101DD8009BFC1BF0B1FB0CF03DFC1BF0CDF9404621
:101DE80010F03AFCB6F80080EB6E08F1FF38A6F860
:101DF8000080ECE6804D0020DE540020D031002029
:101E0800D4310020C25B0020A84D00209023002080
:101E1800EC670020BC550020C0550020D05200209F
:101E28001F85EB51542E002000000000D4ED0A6AF3
:101E380094ED0B7AD4ED0C7A4E491E68C968C5F842
:101E48008060FDEEE66ABDEEC77AFDEEE77A9E8811
:101E5800C5F8881000200021C5ED236AA062A5F806
:101E68008460198085ED247AE06259802063C5ED8D
:101E7800257A9980013AA5F87C200EE7D4ED0C7AF2
:101E88002763FDEEE77A9880C5ED1E7AADE7D5EDBC
:101E9800237A94ED0A5AD4ED0B5A94ED0C6AF8EEB5
:101EA800E76AD5ED247AB8EEE77AD5ED257AF8EE2B
:101EB800E77A76EE856A37EE257A77EE867AFDEE52
:101EC800E66ABDEEC77AFDEEE77A00200021012A16
:101ED800C5ED236AA062198085ED247AE0625980F5
:101EE8002063C5ED257A9980C4D1234885F89810D8
:101EF800016885F89920890332D4204E00203146A4
:101F08000F780B2F01F10C010DD001301828F7D1F3
:101F1800D5F8800017491860B5F88460D5F88800AE
:101F28009E80C860A6E7164FD7F800E04100BEF1D2
:101F3800000F09D001EB000C06EB8C0C9EF801E0B9
:101F48009CF801C0F445E3D20144DFF840C00D48D5
:101F580006EB810600213E60ACF800100160D7E76F
:101F6800094909780329C8D110F01EFBEB6EB5F8B2
:101F78007C20CDE7542E0020CC5B0020843E030853
:101F88001C3C0020143C0020A6470020183C0020E0
:101F980010B5094C238818439842208009D0074B74
:101FA80041F20241FF2219809A700E2010F016FBB0
:101FB8002388184610BD00BFC84A0020585D00207D
:101FC800024A136818431060704700BF8049002018
:101FD8002DE9F04F06462DED028BB0F90800088177
:101FE800C5B28DB028460C469046FEF70BF940B1B5
:101FF80001231A46184662810DB0BDEC028BBDE87C
:10200800F08FA5F10A03ED2B00F2F080DFE813F062
:10201800DC02EE00EE00EE00EE00EE00EE00EE0058
:10202800EE00EE00EE00EE00EE00EE00EE00EE0038
:10203800EE00EE00EE00EE00EE00EE00EE00EE0028
:10204800EE02EE00EE00EE000C03EE00EE00EE00F5
:102058001A03EE002603EE003F04EE005804EE00DB
:102068006404EE006C04EE009204EE00EE00EE0054
:10207800A704AD04EE00B404EE00EE00C804EE00C0
:10208800CF04EE00EE00EE00F704EE00EE00EE00E6
:10209800EE000A05EE002905EE0076058505EE003E
:1020A800EE00EE00EE00EE00EE00EE00A805EE00F9
:1020B800D705EE00C506EE005D06EE00B106EE009F
:1020C800EE00EE00EE0002061E0656061E07C401CC
:1020D800EE00EE00D601EC01EE00F5019D01EE00E8
:1020E800EE00EE00EE00B901EE00EE005802EE0040
:1020F800EE00EE000004D603EC036F03EE00EE00E2
:10210800EE00B003EE00EE000F04EE00EE00EE006D
:10211800EE00EE00EE00EE00EE00EE00EE00EE0047
:10212800EE00EE00EE00EE000206EE00EE00EE001D
:10213800EE00EE00EE00EE00EE00EE00EE00EE0027
:10214800EE00EE00EE00EE00EE00EE00EE00EE0017
:10215800EE00EE00EE00EE00EE00EE00EE00EE0007
:10216800EE00EE00EE00EE00EE00EE00EE00EE00F7
:10217800EE003004EE00EE00EE00EE00EE00EE00A1
:10218800EE00EE00EE00EE00EE00EE00EE00EE00D7
:10219800EE00EE00EE00EE00EE00EE00EE00EE00C7
:1021A800EE00EE00EE00EE00EE00EE00EE00EE00B7
:1021B800EE00EE00EE00EE00EE00EE00EE00EE00A7
:1021C800EE00EE00EE00EE00EE00EE00EE00EE0097
:1021D800EE00EE00EE00EE00EE00EE007902830263
:1021E800EE00EE00EE00EE00EE00AD02742DD6E932
:1021F800002301F0AB86772D0BD19A421EBF531CEA
:1022080033601178A14A08BF0021204616F012FA5F
:10221800EEE6F52D40D0A5F121010746A3EB020C0F
:10222800362900F24387DFE811F0EC064107410741
:10223800410741074107410741070C07410741078B
:102248004107410741074107410741074107410746
:1022580041074107410741074107D906410741079F
:102268004107410741074107410741074107410726
:102278004107410741074107410741074107410716
:102288004107410741074107410741074107A506A3
:1022980041078A06410785069A4241F0FA867C4B37
:1022A800FF221A704FF000097A4D0EF09BFB494649
:1022B8002022794885F800902FF092F98DF80C903B
:1022C8009DF80C30072B01F2CF87744F724E4A46A7
:1022D8009DF80C3003EB430307EBC3035B7CE3B1CE
:1022E8009DF80C3003EB430307EBC30320215B6924
:1022F8009BB19DF80C3003EB430307EBC30358690C
:1023080046F8220019F03CFF2B7856F823001AF003
:10231800B7F82A780132D2B22A709DF80C3001330E
:10232800DBB28DF80C309DF80C30072BD0D9236820
:10233800591C21601A70B8F1000F3FF459AE584B80
:10234800C8F8003001231A4654E6564D0023226887
:10235800286803EB4301561C405C266010702A680D
:1023680020680A44461C5278266002702A68206851
:102378000A4401339278411C0A2B21600270E6D18D
:1023880036E6494952232268501C2060137011F820
:10239800013F002BF7D12BE6444F3B78002B3FF44D
:1023A80027AE434E002536F9021B204689B21BF0A2
:1023B80041FF3B7801359D42F5DB19E63D4D20464E
:1023C80029881BF037FF698820461BF033FFB5F9D1
:1023D80004303949DA1781FB0313C2EBA30399B21E
:1023E80020461BF027FF03E6204600211BF00AFFCA
:1023F800002120461BF01EFFFAE5304D23682A68AD
:10240800591CD27821601A702B6822689979531C5C
:102418002360002311702A6821681A440133527A14
:10242800481C032B20600A70F5D123682A68591CC0
:10243800127B21601A7023682A68591C127821605F
:102448001A7023682A68591C527821601A702B6800
:102458002046D9891BF0EEFE23682A68591C127A97
:1024680021601A7023682A68591C527921601A70F1
:1024780023682A68591C127921601A702A6823680F
:10248800D279591C21601A70B2E500BF1500010805
:1024980090230020EF550020302C00202C690020CC
:1024A80025560208BC4D00209C1E03085C2A00200B
:1024B800A04A0020784D002067666666C04D00205F
:1024C800B24D05F16006A98820461BF0B3FEE988E5
:1024D80020461BF0AFFE298920461BF0ABFE23687F
:1024E800AA7A591C21601A702368EA7A591C21605B
:1024F8001A7055F80C1B20461BF084FEAE42E2D140
:1025080076E5A34D2046E9891BF094FEA98920466B
:102518001BF090FE6CE59F4B03F17005226819785B
:10252800501C2060117022685978501C206011706E
:1025380022689978501C206011702268D978501C44
:102548002060117022681979501C2060117022686F
:102558005979501C20601170226899790733501CF2
:10256800AB4220601170D9D142E503A81BF076FA7E
:1025780000283FF43DADBDF80C1020461BF05AFE74
:1025880023689DF80E20591C21601A7023689DF855
:102598000F20591C21601A7023689DF81020591CBF
:1025A80021601A7023689DF81120591C21601A7047
:1025B80023689DF81220591C21601A70BDF8141068
:1025C80020461BF037FE13E5734D28462DF0ECFE30
:1025D80000283FF40DAD2B460544226813F8011B73
:1025E800501C9D4220601170F7D101E56B4D05F13B
:1025F8006406287816F074F82368027A591C21605A
:102608001A7023686A78591C21601A702368AA789E
:10261800591C21601A702368EA780535591CB5429F
:1026280021601A70E5D1E3E45D4D204629881BF04E
:1026380001FEA98820461BF0FDFD298920461BF0D4
:10264800F9FDD5E42368574A581C117820601970A1
:1026580023685278591C21601A70C9E4524D2368C6
:102668002A7A591C21601A70A98B20461BF0E2FDBA
:10267800298B20461BF0DEFD698B20461BF0DAFD16
:102688002368EA7C591C21601A70A98C20461BF02B
:10269800D1FDE98C20461BF0CDFD2368AA7F591C8B
:1026A80021601A70236895F82020591C21601A703F
:1026B80095F8223003EB8303590001F57A7120461F
:1026C8001BF0B8FD2368EA7A591C21601A70E96882
:1026D80020461BF097FD23682A7C591C21601A703C
:1026E800236895F82120591C21601A7080E4DFF8CE
:1026F800C8C00027FEB2614600232268501C206033
:1027080016702268501C20601370226811F8010F9F
:102718000133551C062B25601070EED10137062FAA
:102728000CF1060CE6D1214900232268501C2060D8
:1027380017702268501C20601370226811F8010F6E
:102748000133551C0B2B25601070EED12368184AF5
:10275800581C07212060197023680021581C20602C
:102768001970236892F8F020591C21601A703FE410
:10277800104D2046298A1BF05DFD698A20461BF012
:1027880059FDA98A20461BF055FD31E43856002032
:10279800542E0020E0540020B05200209032002037
:1027A80098450020902E0020F0760020A3480020B5
:1027B800C0470020EC6900207F4800202268B94B00
:1027C800B9491878551C2560107022685878551C2E
:1027D8002560107022689B78501C20601370C9888F
:1027E80020461BF027FD03E42368B04AB04910785F
:1027F800B04A5D1C2560187023688978581C2060D1
:10280800197023689278591C21601A70FFF7F0BB81
:10281800A54D204629881BF00DFD698820461BF030
:1028280009FDA98820461BF005FDFFF7E1BB2368D9
:10283800A14F591C3A7821601A703B78002B3FF45D
:10284800D7AB0025EEB230461FF0ACFB23684278C8
:10285800591C216030461A701FF0A4FB01892046DC
:102868001BF0E8FC3B7801359D42EBDBFFF7C0BB72
:102878002368924A591C1278216003A81A701BF029
:10288800EDF823685A1C22601870FFF7B1BB8C4D15
:1028980005F14006B5F8801020461BF0CBFC2368F4
:1028A80095F88220591C21601A70236895F88320B6
:1028B8000435591CB54221601A70EBD1FFF798BB5B
:1028C800804D05F1800655F8041F20461BF09AFC40
:1028D800B542F8D1FFF78CBB23687B4A591C527D5F
:1028E80021601A70FFF784BB784B03F15A05226800
:1028F8005979501C2060117022681978501C20608A
:10290800117022685978501C2060117022689978DB
:10291800501C206011702268D978501C20601170FA
:10292800226819790633501CAB4220601170DED141
:10293800FFF75EBB664D674E05F1300795F902104B
:10294800654B93F906208A4203F1080301F01183CD
:10295800B342F6D10835AF42F0D1FFF749BB0021A9
:1029680020461BF04FFCFFF743BB23680122991850
:1029780021601A70FFF73CBB2368584A581C5178ED
:10298800206019702368564A0021581C206019706D
:10299800236892F8A020591C21601A70FFF728BB01
:1029A8000822494920461BF015FCFFF721BB236884
:1029B8004C4A4D4D11784D4A581C206019701168C9
:1029C80020461BF01FFC23683F4A591C127A2160DD
:1029D8001A70298820461BF02DFCA98820461BF078
:1029E80029FC298920461BF025FC204600211BF0E4
:1029F80021FC002120461BF01DFCFFF7F9BA2368D3
:102A080000255A1C226029461D7020461BF0FAFB3F
:102A1800294620461BF0F6FB294620461BF0F2FB10
:102A2800FFF7E6BA2368324D591C2A7921601A70DB
:102A380023686A79591C21601A70298820461BF07E
:102A4800F9FB2368AA79591C21601A706988204605
:102A58001BF0F0FB2368EA79591C21601A70FFF714
:102A6800C7BA244F3B78002B3FF4C2AADFF888800E
:102A780000254646236818F81520591C21601A704D
:102A8800717801EB810101EB810101F2EE21204611
:102A98001BF0D0FB3B7801359D4206F10206E9DBCD
:102AA800FFF7A6BA4C2E0020545B0020D06400200B
:102AB800542E0020642E0020564B0020FE270020B4
:102AC800C0470020BC470020F07600209856002020
:102AD800745F0020CC7600209C760020742E0020A5
:102AE80090230020902E002098450020402B0020A5
:102AF800705B00205C2A0020B0330020236800258A
:102B08005A1C22601D7023685A1C22601D7023689D
:102B18005A1C226029461D707BE72368B94D591C51
:102B2800012221601A702368AA78591C21601A7042
:102B380009F0E8FC2368B44AB4495E1C26601870A2
:102B4800B1F90010B2F900001BF08EFD23685A1C81
:102B580022601870298820461BF06CFBFFF748BAE2
:102B6800AB4B1D68002D01F0FA820CA9002301F877
:102B7800243D284608F07EFE284608F087FE226895
:102B8800A44B511C2160107022681978501C2060D9
:102B9800117022685978501C206011702268997849
:102BA800501C2060117022689DF80C10501C206089
:102BB8001170998820461BF03DFBFFF719BA23686E
:102BC800954E964AB178964D581C20601970236826
:102BD8001278591C21601A7023682A79591C2160BF
:102BE8001A702368AA78591C21601A70298820460F
:102BF8001BF020FBE98920461BF01CFB2368F279B7
:102C0800591C21601A702368EA78591C21601A70CF
:102C1800FFF7EEB900231E46DFF82C82CDE9033317
:102C2800994602E02B2E01F0C281314640461BF046
:102C380083FEF7B201360028F4D0384615F0A0FC20
:102C4800002841F0908109F10109EBE7754B9B8A57
:102C5800B3F5006F01F24C82B3F5806F01F2868202
:102C6800B3F5007FB7EE008AF6EE007A28BFB0EE23
:102C7800678A6D4D05F10C06F5EC017A67EE887AE6
:102C88002046FCEEE77A17EE903A99B21BF0D2FA9A
:102C9800B542F1D1654D664F05F10C06B5EC010A58
:102CA800D7ED077A80EE270A2EF076FE81B220460D
:102CB8001BF0C0FAB542F1D1002193E610225D491C
:102CC80020461BF087FAFFF793B9204600211BF036
:102CD800B1FA204600211BF0ADFA204600211BF076
:102CE800A9FA2368544D00265A1C22601E702368D6
:102CF8002A68591C92F82C2021601A7023682A68C7
:102D0800591C92F8362021601A7023682A68591CC9
:102D180092F8372021601A7023685A1C22601E70AE
:102D280023685A1C22601E7023685A1C22601E7079
:102D38002B682046598F1BF07DFA2B682046198F87
:102D48001BF078FA23682A68591C92F82E20216013
:102D58001A7023685A1C22601E702B682046598EF0
:102D68001BF068FA2B682046998E1BF063FAFFF770
:102D78003FB92368314A3249D078324A5D1C256010
:102D8800187023684979581C206019702368D27814
:102D9800591C21601A70FFF72BB91F4E23687279EE
:102DA800254D591C21601A702B682046198C1BF080
:102DB80041FA2B682046D98B1BF03CFAB189204692
:102DC8001BF038FAF18920461BF034FA2B682046AC
:102DD800598C1BF02FFA2B682046998C1BF02AFA85
:102DE800318A20461BF026FA718A20461BF022FA07
:102DF8002A68236892F82620591C21601A70FFF768
:102E0800F7B800BFE6520020D22C0020D42C0020B6
:102E1800904900209C490020D0640020442E0020C6
:102E2800EC690020804D0020A84D0020E0670020BC
:102E3800F0640020202C0020BC4D0020542E0020DF
:102E480098540020642E002050360020DFF84CA251
:102E5800DFF84CB2864E874F9FED878ADFF84482B1
:102E6800DFED868ADFF840920AF1C0050EE0FCEE3D
:102E7800E77A17EE903A99B220460AF1180A1BF041
:102E8800D9F9AA450BF1040B3FF4B2A89AF811102E
:102E98000029F1D03378DBED007A012BE7D13B68CC
:102EA800DB0441F1DE80F5EE407AF1EE10FA01F034
:102EB8002381F4EEC87AF1EE10FA01F11D81BDEE1E
:102EC800E77AF4EEE87AF1EE10FA17EE103A01F22A
:102ED8006881A3F130026FF4F97303FB02F389FBF5
:102EE80003121A44D917C1EB622101F2DB5189B2EE
:102EF800C2E70723BCFBF3F3C3EBC301BCEB01013F
:102F080018D1DFF87CA15FFA83F90D46EBB24B4587
:102F18003FF46EA8531C336092F90020584B0027E9
:102F280093F90210914203F1080301F0A0810137DF
:102F3800062FF5D14FF0FF331A46FFF75BB8531C45
:102F480033601578FF2D01F06381FE2D01F03A8181
:102F580030461AF04FFED6E900239B1A002B01F3E6
:102F68004381282DE6D8474A012322F815001A463E
:102F7800FFF740B8531C336011780329DAD84A1E8A
:102F8800D2B24148414B02EB420200EB42021970B7
:102F9800527800293FF42CA80CF1FF31C9B29142B4
:102FA800C8D10022C3F80620C3F802209A7251B192
:102FB8000133326819440132326012F8010C03F807
:102FC800010F9942F7D1324B1B78002B3FF410A820
:102FD8002AF039F901231A46FFF70CB8531C33605D
:102FE80013780A2B01F0C68030461AF00FFE3046DF
:102FF8001AF00CFE30461AF009FE01231A46FEF7B5
:10300800F9BF1346511C3160224D13F8021B697039
:10301800336053782B70D31C33609378AB70304691
:103028001AF0E8FD336828811A46591C316012F8F5
:10303800021B697132605B78AB7101231A46FEF797
:10304800D9BF531C336013780A2B01F0A480502B8E
:1030580040F03E8730461AF0CDFD0F4D28803046AF
:103068001AF0C8FD012368801A46FEF7C3BF00BFE7
:10307800026A0020EC6700200000404200E0824421
:10308800745F00203847002054240308A85F0020FC
:1030980069360020A84700204C2500202C69002014
:1030A800002C0020DB9B914121053483A5F10B0006
:1030B800EF283FF63FAF01A151F820F0AD3D0008E1
:1030C8003D2F00083D2F00083D2F00083D2F000828
:1030D8003D2F00083D2F00083D2F00083D2F000818
:1030E8003D2F00083D2F00083D2F00083D2F000808
:1030F8003D2F00083D2F00083D2F00083D2F0008F8
:103108003D2F00083D2F00083D2F00083D2F0008E7
:103118003D2F00083D2F00083D2F00083D3D0008C9
:103128003D2F0008233D00083D2F0008013D000801
:103138003D2F00083D2F00083D2F0008D93C00080E
:103148003D2F00087F3C00083D2F00084D3C00083B
:103158003D2F0008253C00083D2F0008E93E0008E7
:103168003D2F0008433E00083D2F0008FB2E0008B5
:103178003D2F00083D2F00083D2F00083D2F000877
:10318800F91F00083D2F0008153E00083D2F0008D4
:103198003D2F00083B3F00083D2F0008973E0008E0
:1031A8003D2F00083D2F00083D2F00083D2F000847
:1031B8003D2F00083D2F00083D2F00083D2F000837
:1031C800FB3E00083D2F0008DB3B00083D2F0008B0
:1031D8003D2F0008753B00083D2F00083D2F0008D3
:1031E8003D2F00083D2F00083D2F00083D2F000807
:1031F8003D2F0008D93A00083D2F0008AF390008D4
:103208003D2F0008413900083D2F0008C538000847
:103218003D2F00089D3800087F3800084538000811
:103228003D2F00083D2F00083D2F00083D2F0008C6
:103238003D2F00083D2F00083D2F00083D2F0008B6
:103248003D2F00083D2F00083D2F00083D2F0008A6
:103258003D2F00083D2F00083D2F00083D2F000896
:103268003D2F00083D2F00083D2F00083D2F000886
:103278003D2F00083D2F00083D2F00083D2F000876
:103288003D2F00083D2F00083D2F00083D2F000866
:103298003D2F00083D2F00083D2F00083D2F000856
:1032A8003D2F00083D2F00083D2F00083D2F000846
:1032B8003D2F00083D2F00083D2F00083D2F000836
:1032C8003D2F00083D2F00083D2F00083D2F000826
:1032D8003D2F00083D2F00083D2F00083D2F000816
:1032E8003D2F00083D2F00083D2F00083D2F000806
:1032F8003D2F00083D2F00083D2F00083D2F0008F6
:103308003D2F00083D2F00083D2F00083D2F0008E5
:103318003D2F00083D2F00083D2F00083D2F0008D5
:103328003D2F00083D2F00083D2F00083D2F0008C5
:103338003D2F00083D2F00083D2F00083D2F0008B5
:103348003D2F00083D2F00083D2F00083D2F0008A5
:103358003D2F00083D2F00083D2F00083D2F000895
:103368003D2F00083D2F00083D2F0008AF3B000807
:103378003D2F00084B3B00086B3A00083D2F000822
:103388003D2F00083D2F00083D2F00083D2F000865
:103398003D2F00083D2F00083D2F00083D2F000855
:1033A8003D2F00083D2F00083D2F00083D2F000845
:1033B800153A00083D2F00080D3800083D2F000879
:1033C80085370008273700080B3700083D2F00080D
:1033D800F13600083D2F0008C93600083D2F0008C7
:1033E800693600083D2F0008453600083D2F0008C3
:1033F8003D2F000823360008F5350008E1350008A0
:10340800B935000899350008773500083D2F0008C0
:103418003D2F00083D2F00083D2F00083D2F0008D4
:103428003D2F00083D2F00083D2F00083D2F0008C4
:103438003D2F00083D2F00083D2F00083D2F0008B4
:103448003D2F00083D2F00083D2F00085D3500087E
:103458003D2F00083D2F0008033500083D2F0008C8
:103468003D2F00083D2F00089F3400083D2F00081D
:103478003D2F00083D2F000885340008AE4B1B780F
:10348800DA073FF557AD1AF00FF919F075FE012369
:103498001A46FEF7AFBD30461AF0ACFB3368ADF8FC
:1034A8000C001A46591C316012F8021B32608DF864
:1034B8000E105A788DF80F20DA1C32609A788DF841
:1034C80010201A1D3260DA788DF811205A1D3260EA
:1034D8001B798DF8123003A80023ADF814301AF0C8
:1034E800E1FA964B964A1B68C51A61F1000601235A
:1034F800C2E92A561A46FEF77DBD531C336013787D
:103508000F2B3FF617AD911C3160C3EBC3038D49F8
:103518005078C854D01C30600B4491785970111DF4
:103528003160D1789970511D31601179D970911D30
:10353800316051791971D11D31609179597102F158
:1035480008013160D2799A7124F0D6FA01231A461B
:10355800FEF750BD30461AF04DFB7B4DE8813046F2
:103568001AF048FB0123A8811A46FEF743BD3046EE
:103578001AF040FB754D288230461AF03BFB6882F2
:1035880030461AF037FB0123A8821A46FEF732BDEF
:103598001346511C316013F8020B3360D31C517869
:1035A800336092781FF004FC00287EF421ADC1E45A
:1035B8001346511C3160664913F8020B08703360DA
:1035C800614953788B70D31C3360624B92789A7040
:1035D80001231A46FEF70EBD5F4B604918684E225C
:1035E8002DF0E4FE01231A46FEF704BD1146531CD4
:1035F80033605B4B11F8020B1870316051785970C9
:10360800D11C316092789A7030461AF0F3FA554A14
:103618000123D0801A46FEF7EDBC30461AF0EAFACC
:10362800504D288030461AF0E5FA688030461AF086
:10363800E1FA0123A8801A46FEF7DCBCDFF83481E2
:10364800494F002506E01AF0D5FA24F0D3FF0135DA
:10365800A8EC010A3B789D423046F4DBFEF7C8BC73
:10366800BCF10D0F7FF466AC531C33601578072D41
:103678003FF660ACDFF8008130460C271AF0BAFA42
:1036880007FB05F708EB0705A88030461AF0B2FAE1
:10369800E88030461AF0AEFA336828811A46591C79
:1036A800316012F8021BA97232605B78EB72304607
:1036B8001AF088FA012348F807001A46FEF79ABC60
:1036C800531C33601078070600F15A861A4B1B7892
:1036D800DE073EF58DAC032828BF002016F07EFDDE
:1036E80001231A46FEF786BC134B1B78DD073EF50F
:1036F8007FAC1BF0AFF919F03FFD01231A46FEF726
:1037080079BC0D4B1B78D9073EF572AC17490A787E
:10371800012342F004020A701A46FEF76BBC064BFE
:103728001B78D8073EF564AC114A4FF4C8710123E1
:1037380011801A46FEF75EBC3C490020145E00204A
:1037480090230020E0540020542E0020EC69002033
:10375800D0640020642E0020BC4D0020142D0308E6
:103768004C2E0020545B0020564B0020E4520020D1
:10377800C25B00205455002038560020BCF1090FC8
:103788007FF7D8ABC24D531C2F6833603879F9786E
:103798001378FB70884202F1020108BF3B71316067
:1037A800B979F8795378BB71884208BFFB7107F182
:1037B800090207F10C013368581C3060187802F8C8
:1037C800010B9142F7D19A1C32605A78642AA8BF3B
:1037D8006422D91C3A7331609A783A701A1D3260A3
:1037E800DB787B7030461AF005FAD6E900135A1ACE
:1037F800002AF88100F3CF8525F054FF01231A46EB
:10380800FEF7F8BBA34B1868D31C014621329D1E56
:10381800356013F8035C0D705D1E356013F8025CAB
:103828004D70336013F8015C8D700333934201F1DE
:103838000301ECD124F088FDFEF7DABB511C994254
:10384800316018BF931C10781ABF33605378002377
:10385800002800F062854FF48030FEF7B1FB8E4BF4
:103868001B78DB0700F155858C4A00210123117074
:103878001A46FEF7BFBB884B1B7813F001017FF493
:1038880059AB531C336010780DF04EFD01231A46D6
:10389800FEF7B0BB1346511C3160814913F8020B87
:1038A800C87033607F4953784B71D31C33607E4BAB
:1038B8009278DA7001231A46FEF79CBB30461AF05C
:1038C80099F930461AF096F930461AF093F93046CD
:1038D8001AF09CF933686F4D1946581C2A683060F5
:1038E80011F8020B82F82C003160597882F83610F2
:1038F800D91C31609B7882F8373030461AF086F947
:1039080030461AF083F930461AF080F930462F68AD
:103918001AF070F9788730462F681AF06BF9D6E9F3
:103928000023991A0129388700F3E6849B1A032B90
:1039380000F3D68428687DE7531C3360554D5B4FF0
:1039480013787B713046D5F800801AF053F9A8F83F
:1039580020003046D5F800801AF04CF9D6E900234B
:10396800991A0729A8F81E0000F3E584991A032973
:1039780000F3AA849B1A002B05DD511C2B683160CB
:10398800127883F8262016F045FC29F007FE484BEC
:1039980028681B68002B00F0E88424F03DF9012317
:1039A8001A46FEF727BB1346511C31603F4F13F8E8
:1039B800021BB97033603F4953780B70D31C3360D6
:1039C8003D4D93782B71131D3360D378092BA8BF15
:1039D80009233046AB701AF00DF9D6E90023991A7D
:1039E8000129288000F33785934240F02B8516F093
:1039F80011FCD6E900329A423EF4FAAA5A1C326007
:103A08001B78EB7001231A46FEF7F4BACCF347058E
:103A1800122D3FF68FAA00270DF10C0804E01AF0CA
:103A2800E9F828F817000137AF423046F7DB2A4695
:103A38000023224803A904E031F8136020F813603A
:103A480001339D42F8DC1D49002302E021F81230C1
:103A58000132122AFAD11A49012213460A70FEF7D6
:103A6800C9BA531C1748336001781378002900F04D
:103A7800218404297EF4BCAA134A9B00138017F002
:103A8800E3FE124A0123C2F8B0001A46FEF7B2BAA2
:103A9800C04D0020BC4D00203C490020B53D002011
:103AA800542E002098540020642E0020D06400205A
:103AB800782E0020442E0020EC6900207C2A00206B
:103AC800A02A0020FE27002056490020902300202D
:103AD800C04B1F68002F3EF48BAA384607F0D6FE6D
:103AE800FF283EF485AA30461AF084F83F2840F2B1
:103AF800BA84DFF81483002588F80050D6E900322C
:103B0800D21A012AA8F804007EF772AA1A46591C8C
:103B1800316012F8021B88F802100CA932600022EA
:103B28005D7801F8242D384607F0A4FE9DF80C3086
:103B3800AB423EF45DAA2946384607F0A4FEFEF7DC
:103B480057BAA54D002330462B601AF03BF8D6E94A
:103B58000032D21A002A28607EF74AAA5A1C32601C
:103B68001B782B7201231A46FEF744BA9B49097841
:103B780001293EF63DAA1046511C3160984D10F8B7
:103B8800021BA970D11C30605B1A50783160012B80
:103B9800927840F3788430461AF02CF80123288074
:103BA8001A46FEF727BA1346511C316013F8025B18
:103BB8003360D31C507833609178002D00F07E83F9
:103BC800012D7EF415AA0DF07BFC2B462A46FEF744
:103BD80011BA531C33601778112F3FF6ABA9931C09
:103BE8003360804D537805F8173030461AF002F8E4
:103BF80040F6CA039842A8BF184640F2EE239842FE
:103C080005EB4705B8BF184601231922A0F2EE219B
:103C180091FBF2F11A466970FEF7ECB9531C336058
:103C280015781F2D3FF686A9BCF1050F7FF482A9F0
:103C3800304619F0C7FF6C4B43F825001FF01CF9FC
:103C4800FEF7D6B9684D05F14007304619F0D2FFA6
:103C58003368A5F88000591C1A46316012F8021B17
:103C680085F8821032605B7885F883300435AF427E
:103C7800EBD1FEF7BDB9531C5C4D336013782B7242
:103C8800304619F0B7FFA883304619F0B3FF2883F0
:103C9800304619F0AFFF336868835A1C32601B78CE
:103CA800EB7473689A1A032A00F3A8833268991A86
:103CB800052900F393839B1A002B7EF799A9531CBF
:103CC8003360137885F8213001231A46FEF792B93C
:103CD800511C31604648157805705B1A002B7EF739
:103CE80087A9931C33605278003218BF0122012340
:103CF80042701A46FEF77EB9304619F07BFF3D4DFB
:103D08002860304619F076FF6860304619F072FF77
:103D18000123A8601A46FEF76DB9374D00232B60C2
:103D2800304619F04FFF2A68012302432A601A46D9
:103D3800FEF760B9531C33601578132D3FF6FAA8C7
:103D4800931C33605078019214F0AEFC00283FF4C5
:103D5800F1A8019A294B017805EB8505D01C595526
:103D68003060591990784870101D3060D07888708C
:103D7800501D30601279CA7003F1640202E0053305
:103D88009A4207D019780029F9D19878D9788842C9
:103D9800F5D201271A4A87F00107012317701A463E
:103DA800FEF728B9174D0023BCF1100F28BF4FF0BC
:103DB800100C2B606B60AB60EB602B7405E0326815
:103DC800511C31601278EA5401336345F7D3FEF78A
:103DD8000FB900BF90490020CC5B00204627002087
:103DE800E6520020B0330020C0470020F0760020C3
:103DF800902E002098450020402B00209032002073
:103E080030210020B05200209C490020531C336010
:103E1800BD4B12785A70304619F0F8FED6E90032D8
:103E28009A423EF4E5A85A1C3260B84A1B7882F8D8
:103E3800A03001231A46FEF7DDB8531C336013780F
:103E48000E2B3FF677A8911C31605578032D3FF66D
:103E580071A8AF48062101FB03F14318D71C5D7117
:103E6800376095784554111D3160D1785970511DCE
:103E7800316011799970911D31605179D970D11DD6
:103E8800316092791A7101231A46FEF7B3B8531CB0
:103E98003360A04BA04D12781A7000232B60304677
:103EA80019F090FE32682B68511C03432B60316077
:103EB8009A4B12781A72304619F09CFE984D286079
:103EC800304619F097FE6860304619F093FEA860F6
:103ED800304619F08FFE304619F08CFEFEF788B890
:103EE800531C33608D4B12785A7501231A46FEF71E
:103EF80081B81346511C31608A4D13F8021B297191
:103F0800336053786B71304619F074FE336828803B
:103F18005A1C32601B78AB71304619F06BFE33685F
:103F280068805A1C32601B78EB7101231A46FEF731
:103F380061B87A4D002300E03268511C3160127874
:103F4800EA540133082BF7D1FEF752B89A421EBF44
:103F5800531C33601178744A08BF0021204614F0BE
:103F680069FBFEF745B8494603A81AF0D5FCFEF7E9
:103F78006ABE23685A1C22601970298820461AF0E4
:103F880059F92368EA78591C21601A7023682A793C
:103F9800591C21601A702368AA79591C21601A706B
:103FA80023686A79591C21601A70FEF7D3BC5F4BED
:103FB8005F4EB3F8501020461AF03CF90021204615
:103FC8001AF038F95B4B1A68530103F02001C2F369
:103FD80040030B43C2F3800143EA4103C2F3C0012B
:103FE80043EA8103C2F3401143EAC10102F010021F
:103FF800114320461AF01EF903A9042220461AF09C
:10400800E9F8236831784C4A581C206019701188E7
:104018006429A8BF642120461AF00CF9962D00F0F7
:104028009380002120461AF005F92168B9F1190397
:1040380048BFA9F11203A3F3C4034A1C2260204617
:104048001A460B7004A91AF0C5F823683B4A581C95
:10405800122120601970116820461AF0D3F8FDF774
:10406800C7BFF4EEC87AF1EE10FA49DBFDEEE77A45
:1040780040F2E73217EE903A303B02FB03F388FB3D
:104088000321DB17C3EB612101F2E93189B2FEF7A5
:10409800F3BE1146531C336011F8023B31601B49D3
:1040A80052784A70042B0B700BD9FF2B3EF4FAA8F8
:1040B800216800204A1C012322601A460870FDF777
:1040C80099BF1F490978914203D8022BF0D1FF2AE2
:1040D800EED122680123D11821601370B8F1000FC6
:1040E8003DF486AF174AC8F800201A46FDF782BF8C
:1040F800B4EE008AFEF7BDBD40F2DC51FEF7BCBE4F
:104108004FF47A71FEF7B8BE742E00209023002079
:1041180098560020902E0020402B0020F07600209A
:1041280098450020705B0020C5090108D01B0020BD
:10413800C1520020744D0020FE5500208049002007
:10414800564B0020FD01000823680322591C2160FA
:104158001A7023687278591C21601A7065E7236801
:10416800FF22591C21601A70FDF742BFB5EE008A84
:10417800FEF77FBD931C3360C84B51781970D11C72
:10418800316091785970111D3160D2789A7001238D
:104198001A46FDF72FBF304619F02CFDC04DFEF72B
:1041A8005DBFA3F5836240F2F31303FB02F389FBBF
:1041B80003121A44D917C1EB622101F2DD5189B209
:1041C800FEF75ABE931C33605578022D3EF6B2AE08
:1041D800304619F00FFD2C35B24A4FF0FF3322F864
:1041E80015001A46FDF706BF531C33601378002BE1
:1041F8007EF4B7AE0C2D3EF6B4AEAA4B00301D448B
:1042080018BF0120012385F860001A46FDF7F2BEA9
:10421800304619F0FBFC3368A24D1A46591C316030
:1042280012F8021B85F8571032605B7885F8563013
:10423800304619F0DFFCA5F85200304619F0DAFCD8
:10424800304619F0D7FCD6E900239B1A012BA5F8B4
:1042580054007DF7CDAE304619F0CCFC0123A5F80B
:104268005C001A46FDF7C6BE4A46FEF760B80AEB80
:10427800C708304688F8022019F0BCFC32682AF8D2
:1042880037001346511C316013F8021B88F80310DD
:104298003360537888F80430D31C3360937888F8F7
:1042A8000630134604323260DB7888F80530013571
:1042B800FEF72CBE04220270FFF7DEBB23F0C7FE18
:1042C80001231A46FDF796BE304619F093FC388252
:1042D800304619F08FFC736832687882FFF74ABB62
:1042E80030462F6819F086FC788630462E6819F01B
:1042F80081FCB086FFF71EBB511C2B683160127819
:1043080083F82E20304619F081FCD6E90023FFF708
:104318000DBB0EF05DFDFFF7A7BA6348634D01685A
:104328001A1C18BF012221F4803101232A70016070
:104338001A46FDF75FBE304619F05CFCB88130467E
:1043480019F058FCF8813046D5F8008019F052FC75
:10435800A8F822003046D5F8008019F04BFC7368A5
:104368003268A8F82400FFF701BB514B514A524864
:1043780052491A60012302600A601A46FDF73ABEE4
:1043880000F07F00062828BF00200DF0B3F80123B5
:104398001A46FDF72FBE4A1C286832609A1A0F7811
:1043A8000772002A7FF728AA8A1C32604A7842716D
:1043B8003268991A00297FF71FAA501C29683060B3
:1043C80012780A7132689B1A002B7FF715AA511CC4
:1043D8002B6831601278DA71FFF70EBA531C33601C
:1043E8001378EB72304619F0EDFB3368E8605A1C1D
:1043F80032601B782B74D6E900235CE4304619F050
:10440800F9FBA884304619F0F5FBD6E90023991A80
:104418000329E8847FF74BAC1346511C316013F82D
:10442800021BA9773360537885F82030304619F09D
:10443800E1FB0A22A0F57A7393FBF2F385F82230A8
:10444800736833E4531C33601378003318BF0123B7
:10445800FB71FFF7CCBA304619F0CCFBD6E9002344
:10446800E881FFF7C1BAC50800F007030135013339
:10447800EDB2DFF850802846194688F801301DF063
:10448800BBFBFFF739BB0E4B1988012311FB00F169
:1044980091FBF2F11A462980FDF7ACBD3F250020BB
:1044A800442500203847002080490020B53D0020E1
:1044B80098580020919B0108EC5800204C59002086
:1044C800D22C00209C4900202DE9F04F2DED068BC1
:1044D8004B4C9DB02378069033B14A4FFB68384661
:1044E800984780F001002070474B1D78002D00F0A0
:1044F8009683069A454946480C7802F59C4620362C
:10450800002206601A70002C00F09F83414B069A27
:104518001B689A42404B414A089307921A68404BDD
:10452800059340F28183013CDFF818B10C7002F466
:104538008052002A40F07F833A4B1B78022B01F00F
:104548007C83042B01F06A83012B01F02083364B16
:1045580006999BF80220994201F22C81002A41F029
:104568002D81324B0993089B1E68059BB3F90640C1
:10457800F30401F1D381079B5B8B4FF0640CA342DA
:10458800A4EB0304CCBF00270127C3F5FA630CFB97
:1045980004FC9CFBF3FCBCF1640FA8BF4FF0640C57
:1045A8002CEAEC7C5FFA8CFC214A099B12681B7888
:1045B80012F0805203F0010300F08983002B00F011
:1045C8008983079991F82210614541F23A85002FB5
:1045D80040F08783174C94F84011002940F08183FC
:1045E80015481649006890F82D0000240C604C60AE
:1045F8008C60002840F075831149087074E300BF8F
:10460800742A00205C2A00203E2A00204432002020
:10461800782A002040320020EC670020F076002045
:10462800A04A0020FE270020404B4C003C490020B7
:10463800AC2C002090230020BC4D0020E82B00204B
:10464800B43D00205C4900209DF869009DF8611088
:104658009DF860509DF868309DF86220DDF818904C
:1046680041409DF86A008DF861106B4042408DF81A
:1046780060309DF863009DF86B308DF862204340F0
:104688008DF8633018AA5F4B92E803001B785E4AE6
:10469800DDE90B6B82E80300002B40F004855B4BDF
:1046A8001F78002F01F09081594B0693564801213D
:1046B8001AF042F93588002840F010859BF803303D
:1046C800002B40F00B85534C25F001039BB2AB4205
:1046D800338009D0504B41F20241FF2219800E204D
:1046E8009A700DF07BFF3588474802211AF024F9AB
:1046F8002BB2002800F0FB8423F001039BB2AB42ED
:10470800338009D0444B41F20241FF2219800E2028
:104718009A700DF063FF3588AA0741F1FC873F4B7B
:10472800DFF808911978D9F80400AB0701F0020105
:1047380000F05E85003118BF012117F0A7FE384B45
:104748004FF4FA62C3F8AC2024212F481AF0F4F889
:1047580030B9099A13785F0744BF23F00403137034
:104768002368348813F00A0F11D0072126481AF05D
:10477800E3F8002801F0B483650641F1FE830C21BB
:1047880021481AF0D9F8002841F0A88234881E4838
:1047980008211AF0D1F8002800F0E78544F4807366
:1047A800A342338008D01C4B41F20241FF221980FA
:1047B8000E209A700DF012FF1A4B1B78082B00F090
:1047C800E3850E2B00F0E085089B1C68600563D527
:1047D800154B1B79002B00F06B8416210A481AF040
:1047E800ABF8002840F069841EF014F901200DF0A0
:1047F800FBFD00284ED0DFF838800B9600244FF0E0
:10480800D00A1AE0026A0020AC2C0020544B002089
:10481800C04D0020744D0020585D0020705E0020BF
:10482800D01B0020902E0020544D0020745E0020E4
:10483800907F0020DCB2032C2BD00AFB04F7631C0A
:1048480058F80750002DF5D1032290F9023002954F
:104858000192C278E14951F82220009218462A466E
:104868002B4601210DF000FA064604EB440004EB48
:10487800800008EB001046B129460430CC222CF009
:10488800AFFE013448F80760E4B228F010FD0028B4
:10489800D1D10B9E089B1C68099B1D78D04B15F045
:1048A800010500F0E38401221A70069B05991B6834
:1048B800B1F90610DA89CB4801279142077080F2D6
:1048C800A384C94B4FF07E521A60079B0A9FB3F826
:1048D8001880059B97F90420B3F90030387897F8C9
:1048E80001E0002AA3EB080714BF01224FF0FF32B2
:1048F800002FB8BF7F42B7F5FA7FA8BF4FF4FA7709
:104908008742C6BF3F1A07EE907ADFEDB87AB84FF4
:10491800C8BFF8EEE77A9845059BC7ED007AB3F96A
:1049280002C0C8BFF1EE677AACEB0803C8BFC7ED99
:10493800007A002BB8BF5B42B3F5FA7FA8BF4FF4EB
:10494800FA739842BCBF1B1A07EE903A059BA8BFA2
:10495800DFEDA67AB3F90400B8BFF8EEE77AE045D0
:10496800A0EB0803C7ED017AC4BFF1EE677AC7ED83
:10497800017A002BB8BF5B42B3F5FA7FA8BF4FF4AA
:10498800FA739E4580F20E84A3EB0E0302FB03F339
:1049980007EE903AF8EEE77A8045C7ED027A954A35
:1049A800C4BFF1EE677AC7ED027A14F48054107828
:1049B80000F0FC83B1F5FA6FA8BF4FF4FA61B1F5C6
:1049C8007A7FB8BF4FF47A71A1F57A7C002841F05C
:1049D800CA828949894A81FB0C304FEAEC73C3EBE0
:1049E8006013581C6FF0630E32F9100032F913206F
:1049F8000EFB03C3801A03FB00F381FB0301DB17E3
:104A0800C3EB611313441BB207EE903AB8EEE78A82
:104A180087ED038A002C41F0898033885A0640F1DB
:104A2800F9807749774A91ED018A92ED027A92ED01
:104A3800014AD1ED033AD2ED006AD1ED028A92ED36
:104A4800036AD1ED005AD7ED011A97ED002A6E4A94
:104A58006E4938EE635A74EE470A76EE867A65EE4A
:104A6800200A75EEE84A36EEC69A75EEA89A64EE04
:104A7800A74AB0EE603AA9EE893A13F00303B0EE04
:104A8800645A38EE231A74EE077AA9EE895AA1EE11
:104A9800273AB0EE600A91EE270AA1EE675A33EE84
:104AA800243AF0EE407AB6EE000A35EE88AAB0EE67
:104AB800671A20EE433A35EE605A76EE840AA9EE7C
:104AC800C91AAAEE203A77EEE47A77EE460A33EE70
:104AD800E8AA25EE005AE9EE897AAAEE205A71EE84
:104AE800244A36EEC44A63EE036A73EEA83A64EECB
:104AF800804A75EEC85A37EE066A67EE807AB0EEDD
:104B0800667AE3EE844A95EE057AE5EE056AE5EE07
:104B1800867AB1EE648AF0EE665AF0EE476AB1EE34
:104B2800674AE8EE246A63EE270A67EEA43AE4EEE1
:104B3800275AB1EE450AB0EE606AB0EE631AA4EEE9
:104B4800277A23EE244AE7EEA76AA5EE246AA0EEA8
:104B5800031AE8EE245AB0EE448A31EEA19AE0EE48
:104B6800240AA5EE278A66EEA16A72EE028AE5EEAD
:104B7800033A61EE211A26EE096AA4EEA47AA0EEA1
:104B8800274A0CBFD7ED022ADFED182A82ED005A1A
:104B9800A2EE256AE0EEA86AE2EE081A73EEA33ADE
:104BA80027EE227A34EE044AF0EE005AE3EEA26AC7
:104BB800A2EE846AA1EEA57AC7ED016AC1ED626A28
:104BC80081ED616A87ED006A81ED637A82ED013AD1
:104BD800C2ED027AC2ED034AE3B919E0702B03086B
:104BE800D44A0020E83D0020683D00200000000075
:104BF80040490020603600201F85EB51A45B00204F
:104C0800A01A0020881B0020C01B00209023002031
:104C180087ED027A002D40F0CA8324F041FF1DB0D1
:104C2800BDEC068BBDE8F08F02F48052DFF800B3CC
:104C3800002A3FF481AC0021AA4819F07DFE002823
:104C48007FF47AAC0EF0C4F876E4A74B1B78002BFF
:104C580001F05285A54BA64FDFF8D8A20793DFF8DD
:104C6800D892B8469B4629E01BF804109847032CB5
:104C780003462ADCC8B109EB840339F824105A88A2
:104C8800401A4FF47A7303FB00F0521A40F6CA0335
:104C980090FBF2F000F57A709842A8BF184640F2EF
:104CA800EE239842B8BF184600B28F4B2AF8020B81
:104CB80093F800C00134644580F2A483072C404671
:104CC8007B68D1DDE1B29847034618B2EDE774027C
:104CD8003FF574AC874C002184F84011002F3FF455
:104CE8007FAC85490120087084490978002B00F0C1
:104CF8004583834C6078002872D0DFF840E29EF844
:104D0800000000286CD17F480078002868D17E48D0
:104D18000078002864D17D480078C00660D4DFF8A8
:104D280020A2DAF800300C93F30601F1BD8623794E
:104D38000D93634541F23487754B0A930D9B5B00D5
:104D48004B2BA8BF4B23DBB2634501F2B886714BEE
:104D5800DFED717A93ED017AB0EEC77AB4EEE77AB7
:104D6800F1EE10FA41F1AB8693ED007AB0EEC77A16
:104D7800B4EEE77AF1EE10FA41F1A18693ED027AEA
:104D8800B0EEC77AB4EEE77AF1EE10FA41F1978601
:104D98000C9B13B9069BCAF80030604B60881B68EF
:104DA800DAF80040069EBCF14A0F88BF40081B1B7A
:104DB8004FF47A72334402FB00F2934202D9012283
:104DC8008EF80020002C01F085861C2911D1544A48
:104DD8004FF47A71B3FBF1F30121D380918008E09D
:104DE8001C2941F0D1804A494D4A0A91002151605D
:104DF80043B1089B1E68F40604D5444B1B78D806BB
:104E080041F1E281474B1B78002B40F09681079BCC
:104E1800059A598BB2F900009A8B364C8142B4BF7F
:104E28008023002382420598B0F90200C8BF43F0EE
:104E380040039B088142BCBF63F07F03DBB2824220
:104E48000598B0F90400C8BF43F040039B088142AD
:104E5800BCBF63F07F03DBB282420598B0F906005D
:104E6800C8BF43F040039B088142BCBF63F07F0387
:104E7800DBB294F842118242C8BF43F04003994222
:104E880001F09C83284A84F8423111780022A4F862
:104E9800442184F84621002900F09A805F2B00F015
:104EA8004C816F2B00F04981099A089B12781B6886
:104EB800D20703F0040340F19D801C4E002B40F004
:104EC8004481DFF880900B960023CDE91833CDE9B3
:104ED8001A3309F1640A4C46CDF81890059ECDF8AE
:104EE80030B03EE0AC2C002064330020F076002087
:104EF8005C2A002090230020B43D0020DE540020CE
:104F0800442E0020CE520020B53D0020E45200205F
:104F18004C2E0020785B00200000C842303C002066
:104F2800D0520020A452002030210020C84A00207E
:104F38005C490020442400207C330020203C0020D1
:104F48002C3C00209032002039461AA819F0F4FCB5
:104F5800814680B9C34500F2DD800534A2453FF49F
:104F680073AB27782A2FF8D8237994F803B094F8EC
:104F78000280012BE8D1C345A9467ED94FF0010E26
:104F88006178043140F6330C36F911006045A8BF4A
:104F98006046B0F5617F4FF0190140F2833CB8BF1D
:104FA8004FF4617011FB08C840456DDD11FB0BC85B
:104FB8004045CCBF4FF000084FF00108BEF1000F8C
:104FC8005DD1C145C9D0394618A819F0A5FCC4E778
:104FD80000219A4819F0B0FC002841F0BB80099BD9
:104FE800974A1B781060DF0701F1E883089B1B686C
:104FF80003F0040394F84621002A7FF45EAFB4F965
:105008004421322A7FF759AF8E4A116811F02001E6
:105018007FF453AF94F842210120572A84F84601BF
:1050280001F08D850BB15A2A76D05D2A01F085866C
:105038005E2A01F07B865B2A01F06D86562A01F014
:10504800838694F84221972A01F03887A72A01F02D
:1050580029877D4E33889F0741F00B87A2F1B7035C
:10506800072B01F2B186DFE813F0A40FAF0EAF0EE5
:10507800AF0E9B0FAF0E920F890F4FF00008394605
:105088001AA819F049FC9CE74FF0000896E799F830
:10509800022099F803309A42C1F0278009F10509E6
:1050A800A1453FF4FCAA99F800102329F6D1EEE7B0
:1050B800099B1B78D9077FF597AB4FF40F702AF03F
:1050C8005FFA00283FF4E6AB0CF0B6FD4FF40F7022
:1050D8002AF0F6F90028F7D1FFF7DCBB5B4C236810
:1050E80098077FF5F1AAE90741F141822BB223F035
:1050F80002039BB2AB4233803FF411AB544B41F2F5
:105108000241FF2219800E209A700DF067FA358847
:10511800FFF705BB864633E794F89930002B41F03A
:10512800108794F8483183F0010384F84831002B44
:1051380041F004870C200DF051FA089B424E1B6881
:1051480003F00403002B3FF4BCAE424C94F8483102
:10515800A3B1099B1B78D80710D5059BB3F9062086
:10516800079B5B8B9A4209DD0021344819F0E4FB68
:1051780020B9322384F84801A4F87C3013212F4841
:1051880019F0DAFB002800F0DC8694F898302BB987
:1051980094F8993013B93223A4F87C30012384F8A9
:1051A80098308EE6DFED2C7AFFF7F6BB079B5B8B1A
:1051B8009942C0F26685B1F5FA6FD4BFC3EB01011D
:1051C800C3F5FA614FF47A7CC3F5FA630CFB01F17D
:1051D800B1FBF3FC00283FF4FCAB53781F4A0CFBEF
:1051E80003F382FB032CDB17C3EB6C1CFFF7F1BB4B
:1051F800B1FA81F1490917F049F9194B42F21072D5
:10520800C3F8AC20FFF7A0BAB1F5FA6F1B7B9FED8E
:10521800157ABFBF881A4343C2F5FA6293FBF2F3CB
:10522800C3F1640307EE903AF8EEE77A0E4B67EEA7
:10523800877AC3ED007AFFF748BB00BFAC2C00208B
:10524800283C002080490020C84A0020744D0020D6
:10525800585D002090230020000000001F85EB51BE
:10526800D01B00200AD7233C683D00201B780893F8
:10527800002B7FF41AAB544A1268002A3FF415AB8E
:10528800524A099212F8030CDFF874A11146D71E8E
:1052980023F0D8FF9AF80280099A002800F078864F
:1052A800089BB8F1000F53D107F10801787923F072
:1052B800C9FF002841F017844549B87A23F0C2FF96
:1052C800002800F07886B8F1020F41F010844149B7
:1052D800F87B23F0B7FF002841F015843E49387D5C
:1052E80023F0B0FF002800F07886B8F1040F41F0F1
:1052F80016843A49787E23F0A5FF002841F00B84F4
:105308003749B87F23F09EFF002800F07886B8F16F
:10531800060F41F0FC83334997F8230023F092FFEE
:10532800002841F0E883304997F8280023F08AFFE5
:10533800002800F07886B8F1080F41F0E0832B4987
:1053480097F82D0023F07EFF00283FF4AEAA09232A
:105358001A4602EB82021744254A7878B9788AF807
:10536800023010705170FFF7A0BA24F480739BB21A
:10537800A34233807FF417AAFFF71EBA1C293FF413
:1053880032AD1C4B0A933DE5328822F040039BB2B4
:105398009A4233803FF418AA174B41F20241FF2288
:1053A80019800E209A700DF019F9FFF70DBA134BFA
:1053B800D9F80000197801F0010117F067F81DB05D
:1053C800BDEC068BBDE8F08F904900200456002004
:1053D8000E56002013560020185600201D56002097
:1053E80022560020275600202C5600203156002037
:1053F8009C4900204C2E0020585D0020705E002043
:10540800000000209A4B9B4A1B781492126809925C
:1054180023B1994B1B78002B00F086864FF0000EC5
:10542800964A01231370BCF1000F00F08681944C5A
:10543800944B94F8D8000B9007981978878C924A67
:105448000A97C78C0D97A2FB01725208139302EBBF
:1054580042028E4B08938A1A1B68008B1690D2B2B0
:1054680010925200119203F480521792099A8848B8
:10547800059002F596720CF1FF3042F2010803EA3A
:10548800080803280C9215962246DFF82092DFF8C8
:1054980010B27F4E12914446A8BF03200E950023F8
:1054A8000F9577469046002F00F00481794A0A9DAF
:1054B80032F81320AA424FEA4301C0F0FB800D9D49
:1054C800AA4200F2F7800C9D49F8235012B2002C32
:1054D80040F00E81725201338342E4DD4246634557
:1054E800A0460F9D159EBE46144633DA6A4A1594A7
:1054F80003EB430702EB4707283A0C92099ADFF8B7
:10550800A0A1DDF82CB0119602F59670044640462D
:10551800DDF814800F957646002E6ED00C9A0A9D01
:1055280032F813108D424FEA430266D80D9D8D4222
:1055380063D349F8234009B200287AD128F8021029
:1055480001339C4507F10607E6D10F9D119E159C76
:10555800CDF82CB0494B0E9919709DF82C3084F871
:10556800D830002940F0EF80434BDFF844B10122E6
:1055780004201A70FCF724FD149BDBE901211B6849
:10558800CBF80C305B1A934202D900238BF82130F8
:10559800424B1878089B1A6802F48052002800F0E1
:1055A800F080079B3A4FB3F82480B3F818E03C49E1
:1055B800002A40F0A78413460FE0022C1BD19CF868
:1055C800014004EB840404EB840404F2EE24013368
:1055D800984227F8024B00F0D48011F8134001EBF1
:1055E800430C002CE9D1DCB2022C40F2BD87032C1D
:1055F80001D14446EBE73C88E9E759F823200999AB
:105608008A1A002A9CDB1AF813105A000AEB020EB9
:10561800002900F0BC80022940F0C0809EF80110EB
:1056280001EB810101EB810101F2EE2109B20028B1
:1056380084D0109D27F81510BBF1000F03D1129DDF
:10564800022D7FF67BAFB7F800B07988B7F804E091
:1056580059448E441349DDF83CB00FFA8EFE81FBA5
:105668000E51114DA1EBEE7125F802E009B265E784
:105678003E490020145E0020F8010020B42C0020D0
:105688009023002045320020ABAAAAAAEC6700208C
:10569800A04A0020442400206C2400206433002009
:1056A800B033002056555555B42400204832002008
:1056B8005C49002059F8232009998A1A002AFFF624
:1056C8000AAF1BF8132059000BEB010E002A68D013
:1056D800022A6DD19EF8012002EB820202EB8202BF
:1056E80002F2EE2200250E9512B2002C3FF4F2AE23
:1056F800A74D01EB030A05EB4A0E119D2EF8052074
:105708000B9D1DB9129D022D7FF6E4AEA04DBEF88B
:105718000220BEF804E035F81AA0724492449D4A6B
:105728000FFA8AFA82FB0A529B4DA2EBEA7225F81D
:1057380001A00F9D0B9512B2CCE6984B0893984B9D
:105748001393984B059398480A2119F0F5F8002807
:105758007FF40AAFDFF86CB2149BDBF80C101B68FF
:10576800089ACBF8083012685B1AC82B02F48052EA
:1057780007D98E490B68012023F004030B608BF8CE
:10578800210013990B7801330B70FEF7D2BED9B202
:10579800022940F24C87032900F0D38438F802101C
:1057A800C9E6DAB2022A40F23F87032A00F0C08431
:1057B800725A97E712B901238BF802307C4B099390
:1057C8000A2093F800909BF8214023F073FD012CE8
:1057D80009F00108824600F0DD8609F002099BF80D
:1057E8002030744F714E0A95052B01F28B80DFE84B
:1057F80013F06500910006001B05B8049300012C06
:1058080004BF05238BF82030B8F1000F12D0079B96
:105818003888B3F918100022134661F30F0361F3B7
:105828000F0261F31F43059960F31F424A600B6042
:105838004FF00309604DDBF814102A68914280F09C
:10584800AD8647F230510322CBF81C108BF820208C
:105858000220FCF7B5FB0DF0BBFA2968DBF81C2029
:105868000A440421CBF818208BF82010012C41F0B1
:1058780082812A68DBF81810914281F043804F4BEF
:10588800187820B923F016FD002841F03B803268D3
:1058980022F0020232602A687B88642101FB03231C
:1058A8004FF480600022CBF810308BF820208BF862
:1058B8000320FAF787FC9BF8203095E7B8F1000F32
:1058C80001F0628123F0A0FE012800F07384BAF190
:1058D800000F03D0BB79002B40F09D84012C01F010
:1058E8001180354DDBF810102A689142C0F0A2866D
:1058F80001238BF82030FB79012B40F00F8423F033
:105908005FFC032240F6B8338BF82020CBF81C301C
:10591800294D9DE7012CEED1274DBCE71D212248DA
:1059280019F00AF800287EF426AE254B1A7A002AC8
:105938007EF421AE079ADF88128BD11BA14280F238
:1059480034873A44A242CCBF002701276FF47A7CFF
:1059580004EB0C0292B240F2E6318A4200F29087E0
:10596800DA88079B1B8B9918A142C0F27A879B1A89
:10597800A34240F3D1871C1B4FF0640C0CFB04FCC2
:10598800A3F57A739CFBF3F35FFA83FCFEF70CBE76
:105998006C24002056555555B4240020EC6700208F
:1059A80045320020A04A0020AC2C0020804900206D
:1059B8003C490020705B0020145E0020302100204C
:1059C800545B00205C490020DFF808A3DFF8088357
:1059D800AD4C0AF15A054FF0010951461AF8010C6D
:1059E80023F030FCF8B19AF804009AF8023000EB82
:1059F800400104EB8101013BD1F8502103EB430343
:105A0800434493420FD094F87C21C1F8503109FAED
:105A180000F022EA00009AF80330C1F8547184F8C3
:105A28007C0181F84C310AF1060AAA45D5D1974B79
:105A3800974A06931946974B974CD2F800A00968E5
:105A48001B780C910B93A4F5A6790025D0466368C2
:105A5800002B64D093F800A0BAF1000F5FD0A168C2
:105A6800A8EB010100290ADB99F87C110120A84064
:105A780021EA000108F5FA7089F87C11A0600B9AF8
:105A8800002A4CD0217858780431C9B200283CD17A
:105A9800079A99F87C01B2F818C0059A32F911E012
:105AA8000CF1C8018E4500F31583ACF1C8018E4591
:105AB80080F270862841C7079B7830D45F42012066
:105AC8000CF0CAFD0AF1FF311B2900F2D083DFE890
